:100000000C942A000C9434000C9434000C943400AA
:100010000C9434000C9434000C9434000C94340090
:100020000C9434000C9434000C9434000C94340080
:100030000C9434000C9434000C9434000C94340070
:100040000C9434000C9434000C9434000C94340060
:100050000C94340011241FBECFE5D4E0DEBFCDBF29
:100060000E9436000C944C000C940000B898B9988B
:10007000C09AC19ABE9ABF9AC698C798B09902C052
:10008000C69A02C0B099C698B19902C0C79AF6CF75
:0C009000B19BF4CFC798F2CFF894FFCFDB
:00000001FF
